{
  "_format": "hh-sol-artifact-1",
  "contractName": "Transactions",
  "sourceName": "contracts/Transactions.sol",
  "abi": [
    {
      "anonymous": false,
      "inputs": [
        {
          "indexed": false,
          "internalType": "address",
          "name": "from",
          "type": "address"
        },
        {
          "indexed": false,
          "internalType": "address",
          "name": "receiver",
          "type": "address"
        },
        {
          "indexed": false,
          "internalType": "uint256",
          "name": "timestamp",
          "type": "uint256"
        },
        {
          "indexed": false,
          "internalType": "string",
          "name": "fullName",
          "type": "string"
        },
        {
          "indexed": false,
          "internalType": "string",
          "name": "phoneNumber",
          "type": "string"
        },
        {
          "indexed": false,
          "internalType": "string",
          "name": "deliveryAddress",
          "type": "string"
        },
        {
          "indexed": false,
          "internalType": "uint256",
          "name": "paymentMethod",
          "type": "uint256"
        },
        {
          "indexed": false,
          "internalType": "string",
          "name": "items",
          "type": "string"
        },
        {
          "indexed": false,
          "internalType": "string",
          "name": "userId",
          "type": "string"
        },
        {
          "indexed": false,
          "internalType": "string",
          "name": "orderStatus",
          "type": "string"
        }
      ],
      "name": "Transfer",
      "type": "event"
    },
    {
      "inputs": [
        {
          "internalType": "address payable",
          "name": "receiver",
          "type": "address"
        },
        {
          "internalType": "string",
          "name": "fullName",
          "type": "string"
        },
        {
          "internalType": "string",
          "name": "phoneNumber",
          "type": "string"
        },
        {
          "internalType": "string",
          "name": "deliveryAddress",
          "type": "string"
        },
        {
          "internalType": "uint256",
          "name": "paymentMethod",
          "type": "uint256"
        },
        {
          "internalType": "string",
          "name": "items",
          "type": "string"
        },
        {
          "internalType": "string",
          "name": "userId",
          "type": "string"
        },
        {
          "internalType": "string",
          "name": "orderStatus",
          "type": "string"
        }
      ],
      "name": "addToBlockchain",
      "outputs": [],
      "stateMutability": "nonpayable",
      "type": "function"
    },
    {
      "inputs": [],
      "name": "getAllTransactions",
      "outputs": [
        {
          "components": [
            {
              "internalType": "address",
              "name": "sender",
              "type": "address"
            },
            {
              "internalType": "address",
              "name": "receiver",
              "type": "address"
            },
            {
              "internalType": "uint256",
              "name": "timestamp",
              "type": "uint256"
            },
            {
              "internalType": "string",
              "name": "fullName",
              "type": "string"
            },
            {
              "internalType": "string",
              "name": "phoneNumber",
              "type": "string"
            },
            {
              "internalType": "string",
              "name": "deliveryAddress",
              "type": "string"
            },
            {
              "internalType": "uint256",
              "name": "paymentMethod",
              "type": "uint256"
            },
            {
              "internalType": "string",
              "name": "items",
              "type": "string"
            },
            {
              "internalType": "string",
              "name": "userId",
              "type": "string"
            },
            {
              "internalType": "string",
              "name": "orderStatus",
              "type": "string"
            }
          ],
          "internalType": "struct Transactions.OrderStruct[]",
          "name": "",
          "type": "tuple[]"
        }
      ],
      "stateMutability": "view",
      "type": "function"
    },
    {
      "inputs": [],
      "name": "getTransactionCount",
      "outputs": [
        {
          "internalType": "uint256",
          "name": "",
          "type": "uint256"
        }
      ],
      "stateMutability": "view",
      "type": "function"
    }
  ],
  "bytecode": "0x608060405234801561001057600080fd5b50611063806100206000396000f3fe608060405234801561001057600080fd5b50600436106100405760003560e01c8062f960e31461004557806327506f53146100615780632e7700f01461007f575b600080fd5b61005f600480360381019061005a91906108c4565b61009d565b005b6100696102fa565b6040516100769190610d0f565b60405180910390f35b610087610786565b6040516100949190610d31565b60405180910390f35b60016000808282546100af9190610e13565b9250508190555060016040518061014001604052803373ffffffffffffffffffffffffffffffffffffffff1681526020018a73ffffffffffffffffffffffffffffffffffffffff1681526020014281526020018981526020018881526020018781526020018681526020018581526020018481526020018381525090806001815401808255809150506001900390600052602060002090600a020160009091909190915060008201518160000160006101000a81548173ffffffffffffffffffffffffffffffffffffffff021916908373ffffffffffffffffffffffffffffffffffffffff16021790555060208201518160010160006101000a81548173ffffffffffffffffffffffffffffffffffffffff021916908373ffffffffffffffffffffffffffffffffffffffff16021790555060408201518160020155606082015181600301908051906020019061020792919061078f565b50608082015181600401908051906020019061022492919061078f565b5060a082015181600501908051906020019061024192919061078f565b5060c0820151816006015560e082015181600701908051906020019061026892919061078f565b5061010082015181600801908051906020019061028692919061078f565b506101208201518160090190805190602001906102a492919061078f565b5050507f1e28581b7afbf8e9d50ea3a34fe84ce8be26ff51baf513d596f0d17d86fbeba93389428a8a8a8a8a8a8a6040516102e89a99989796959493929190610c49565b60405180910390a15050505050505050565b60606001805480602002602001604051908101604052809291908181526020016000905b8282101561077d57838290600052602060002090600a0201604051806101400160405290816000820160009054906101000a900473ffffffffffffffffffffffffffffffffffffffff1673ffffffffffffffffffffffffffffffffffffffff1673ffffffffffffffffffffffffffffffffffffffff1681526020016001820160009054906101000a900473ffffffffffffffffffffffffffffffffffffffff1673ffffffffffffffffffffffffffffffffffffffff1673ffffffffffffffffffffffffffffffffffffffff1681526020016002820154815260200160038201805461040890610f2f565b80601f016020809104026020016040519081016040528092919081815260200182805461043490610f2f565b80156104815780601f1061045657610100808354040283529160200191610481565b820191906000526020600020905b81548152906001019060200180831161046457829003601f168201915b5050505050815260200160048201805461049a90610f2f565b80601f01602080910402602001604051908101604052809291908181526020018280546104c690610f2f565b80156105135780601f106104e857610100808354040283529160200191610513565b820191906000526020600020905b8154815290600101906020018083116104f657829003601f168201915b5050505050815260200160058201805461052c90610f2f565b80601f016020809104026020016040519081016040528092919081815260200182805461055890610f2f565b80156105a55780601f1061057a576101008083540402835291602001916105a5565b820191906000526020600020905b81548152906001019060200180831161058857829003601f168201915b50505050508152602001600682015481526020016007820180546105c890610f2f565b80601f01602080910402602001604051908101604052809291908181526020018280546105f490610f2f565b80156106415780601f1061061657610100808354040283529160200191610641565b820191906000526020600020905b81548152906001019060200180831161062457829003601f168201915b5050505050815260200160088201805461065a90610f2f565b80601f016020809104026020016040519081016040528092919081815260200182805461068690610f2f565b80156106d35780601f106106a8576101008083540402835291602001916106d3565b820191906000526020600020905b8154815290600101906020018083116106b657829003601f168201915b505050505081526020016009820180546106ec90610f2f565b80601f016020809104026020016040519081016040528092919081815260200182805461071890610f2f565b80156107655780601f1061073a57610100808354040283529160200191610765565b820191906000526020600020905b81548152906001019060200180831161074857829003601f168201915b5050505050815250508152602001906001019061031e565b50505050905090565b60008054905090565b82805461079b90610f2f565b90600052602060002090601f0160209004810192826107bd5760008555610804565b82601f106107d657805160ff1916838001178555610804565b82800160010185558215610804579182015b828111156108035782518255916020019190600101906107e8565b5b5090506108119190610815565b5090565b5b8082111561082e576000816000905550600101610816565b5090565b600061084561084084610d7d565b610d4c565b90508281526020810184848401111561085d57600080fd5b610868848285610eed565b509392505050565b60008135905061087f81610fff565b92915050565b600082601f83011261089657600080fd5b81356108a6848260208601610832565b91505092915050565b6000813590506108be81611016565b92915050565b600080600080600080600080610100898b0312156108e157600080fd5b60006108ef8b828c01610870565b985050602089013567ffffffffffffffff81111561090c57600080fd5b6109188b828c01610885565b975050604089013567ffffffffffffffff81111561093557600080fd5b6109418b828c01610885565b965050606089013567ffffffffffffffff81111561095e57600080fd5b61096a8b828c01610885565b955050608061097b8b828c016108af565b94505060a089013567ffffffffffffffff81111561099857600080fd5b6109a48b828c01610885565b93505060c089013567ffffffffffffffff8111156109c157600080fd5b6109cd8b828c01610885565b92505060e089013567ffffffffffffffff8111156109ea57600080fd5b6109f68b828c01610885565b9150509295985092959890939650565b6000610a128383610b2e565b905092915050565b610a2381610eb7565b82525050565b610a3281610e69565b82525050565b610a4181610e69565b82525050565b6000610a5282610dbd565b610a5c8185610de0565b935083602082028501610a6e85610dad565b8060005b85811015610aaa5784840389528151610a8b8582610a06565b9450610a9683610dd3565b925060208a01995050600181019050610a72565b50829750879550505050505092915050565b6000610ac782610dc8565b610ad18185610df1565b9350610ae1818560208601610efc565b610aea81610fee565b840191505092915050565b6000610b0082610dc8565b610b0a8185610e02565b9350610b1a818560208601610efc565b610b2381610fee565b840191505092915050565b600061014083016000830151610b476000860182610a29565b506020830151610b5a6020860182610a29565b506040830151610b6d6040860182610c2b565b5060608301518482036060860152610b858282610abc565b91505060808301518482036080860152610b9f8282610abc565b91505060a083015184820360a0860152610bb98282610abc565b91505060c0830151610bce60c0860182610c2b565b5060e083015184820360e0860152610be68282610abc565b915050610100830151848203610100860152610c028282610abc565b915050610120830151848203610120860152610c1e8282610abc565b9150508091505092915050565b610c3481610ead565b82525050565b610c4381610ead565b82525050565b600061014082019050610c5f600083018d610a38565b610c6c602083018c610a1a565b610c79604083018b610c3a565b8181036060830152610c8b818a610af5565b90508181036080830152610c9f8189610af5565b905081810360a0830152610cb38188610af5565b9050610cc260c0830187610c3a565b81810360e0830152610cd48186610af5565b9050818103610100830152610ce98185610af5565b9050818103610120830152610cfe8184610af5565b90509b9a5050505050505050505050565b60006020820190508181036000830152610d298184610a47565b905092915050565b6000602082019050610d466000830184610c3a565b92915050565b6000604051905081810181811067ffffffffffffffff82111715610d7357610d72610fbf565b5b8060405250919050565b600067ffffffffffffffff821115610d9857610d97610fbf565b5b601f19601f8301169050602081019050919050565b6000819050602082019050919050565b600081519050919050565b600081519050919050565b6000602082019050919050565b600082825260208201905092915050565b600082825260208201905092915050565b600082825260208201905092915050565b6000610e1e82610ead565b9150610e2983610ead565b9250827fffffffffffffffffffffffffffffffffffffffffffffffffffffffffffffffff03821115610e5e57610e5d610f61565b5b828201905092915050565b6000610e7482610e8d565b9050919050565b6000610e8682610e8d565b9050919050565b600073ffffffffffffffffffffffffffffffffffffffff82169050919050565b6000819050919050565b6000610ec282610ec9565b9050919050565b6000610ed482610edb565b9050919050565b6000610ee682610e8d565b9050919050565b82818337600083830152505050565b60005b83811015610f1a578082015181840152602081019050610eff565b83811115610f29576000848401525b50505050565b60006002820490506001821680610f4757607f821691505b60208210811415610f5b57610f5a610f90565b5b50919050565b7f4e487b7100000000000000000000000000000000000000000000000000000000600052601160045260246000fd5b7f4e487b7100000000000000000000000000000000000000000000000000000000600052602260045260246000fd5b7f4e487b7100000000000000000000000000000000000000000000000000000000600052604160045260246000fd5b6000601f19601f8301169050919050565b61100881610e7b565b811461101357600080fd5b50565b61101f81610ead565b811461102a57600080fd5b5056fea26469706673582212206b313bd69ace9af6102f8021051ed6e383f418f129bdc6b795277f164e7f5e9b64736f6c63430008000033",
  "linkReferences": {},
  "deployedLinkReferences": {}
}